{
  "_format": "hh-sol-artifact-1",
  "contractName": "story",
  "sourceName": "contracts/story.sol",
  "abi": [
    {
      "inputs": [],
      "stateMutability": "nonpayable",
      "type": "constructor"
    },
    {
      "inputs": [],
      "name": "ApprovalCallerNotOwnerNorApproved",
      "type": "error"
    },
    {
      "inputs": [],
      "name": "ApprovalQueryForNonexistentToken",
      "type": "error"
    },
    {
      "inputs": [],
      "name": "BalanceQueryForZeroAddress",
      "type": "error"
    },
    {
      "inputs": [],
      "name": "MintERC2309QuantityExceedsLimit",
      "type": "error"
    },
    {
      "inputs": [],
      "name": "MintToZeroAddress",
      "type": "error"
    },
    {
      "inputs": [],
      "name": "MintZeroQuantity",
      "type": "error"
    },
    {
      "inputs": [],
      "name": "OwnerQueryForNonexistentToken",
      "type": "error"
    },
    {
      "inputs": [],
      "name": "OwnershipNotInitializedForExtraData",
      "type": "error"
    },
    {
      "inputs": [],
      "name": "TransferCallerNotOwnerNorApproved",
      "type": "error"
    },
    {
      "inputs": [],
      "name": "TransferFromIncorrectOwner",
      "type": "error"
    },
    {
      "inputs": [],
      "name": "TransferToNonERC721ReceiverImplementer",
      "type": "error"
    },
    {
      "inputs": [],
      "name": "TransferToZeroAddress",
      "type": "error"
    },
    {
      "inputs": [],
      "name": "URIQueryForNonexistentToken",
      "type": "error"
    },
    {
      "anonymous": false,
      "inputs": [
        {
          "indexed": true,
          "internalType": "address",
          "name": "owner",
          "type": "address"
        },
        {
          "indexed": true,
          "internalType": "address",
          "name": "approved",
          "type": "address"
        },
        {
          "indexed": true,
          "internalType": "uint256",
          "name": "tokenId",
          "type": "uint256"
        }
      ],
      "name": "Approval",
      "type": "event"
    },
    {
      "anonymous": false,
      "inputs": [
        {
          "indexed": true,
          "internalType": "address",
          "name": "owner",
          "type": "address"
        },
        {
          "indexed": true,
          "internalType": "address",
          "name": "operator",
          "type": "address"
        },
        {
          "indexed": false,
          "internalType": "bool",
          "name": "approved",
          "type": "bool"
        }
      ],
      "name": "ApprovalForAll",
      "type": "event"
    },
    {
      "anonymous": false,
      "inputs": [
        {
          "indexed": true,
          "internalType": "uint256",
          "name": "fromTokenId",
          "type": "uint256"
        },
        {
          "indexed": false,
          "internalType": "uint256",
          "name": "toTokenId",
          "type": "uint256"
        },
        {
          "indexed": true,
          "internalType": "address",
          "name": "from",
          "type": "address"
        },
        {
          "indexed": true,
          "internalType": "address",
          "name": "to",
          "type": "address"
        }
      ],
      "name": "ConsecutiveTransfer",
      "type": "event"
    },
    {
      "anonymous": false,
      "inputs": [
        {
          "indexed": true,
          "internalType": "address",
          "name": "from",
          "type": "address"
        },
        {
          "indexed": true,
          "internalType": "address",
          "name": "to",
          "type": "address"
        },
        {
          "indexed": true,
          "internalType": "uint256",
          "name": "tokenId",
          "type": "uint256"
        }
      ],
      "name": "Transfer",
      "type": "event"
    },
    {
      "inputs": [
        {
          "internalType": "address",
          "name": "to",
          "type": "address"
        },
        {
          "internalType": "uint256",
          "name": "tokenId",
          "type": "uint256"
        }
      ],
      "name": "approve",
      "outputs": [],
      "stateMutability": "payable",
      "type": "function"
    },
    {
      "inputs": [
        {
          "internalType": "address",
          "name": "owner",
          "type": "address"
        }
      ],
      "name": "balanceOf",
      "outputs": [
        {
          "internalType": "uint256",
          "name": "",
          "type": "uint256"
        }
      ],
      "stateMutability": "view",
      "type": "function"
    },
    {
      "inputs": [
        {
          "internalType": "uint256",
          "name": "tokenId",
          "type": "uint256"
        }
      ],
      "name": "getApproved",
      "outputs": [
        {
          "internalType": "address",
          "name": "",
          "type": "address"
        }
      ],
      "stateMutability": "view",
      "type": "function"
    },
    {
      "inputs": [
        {
          "internalType": "address",
          "name": "owner",
          "type": "address"
        },
        {
          "internalType": "address",
          "name": "operator",
          "type": "address"
        }
      ],
      "name": "isApprovedForAll",
      "outputs": [
        {
          "internalType": "bool",
          "name": "",
          "type": "bool"
        }
      ],
      "stateMutability": "view",
      "type": "function"
    },
    {
      "inputs": [],
      "name": "maxQuantity",
      "outputs": [
        {
          "internalType": "uint256",
          "name": "",
          "type": "uint256"
        }
      ],
      "stateMutability": "view",
      "type": "function"
    },
    {
      "inputs": [
        {
          "internalType": "uint256",
          "name": "quantity",
          "type": "uint256"
        }
      ],
      "name": "mint",
      "outputs": [],
      "stateMutability": "payable",
      "type": "function"
    },
    {
      "inputs": [],
      "name": "name",
      "outputs": [
        {
          "internalType": "string",
          "name": "",
          "type": "string"
        }
      ],
      "stateMutability": "view",
      "type": "function"
    },
    {
      "inputs": [],
      "name": "owner",
      "outputs": [
        {
          "internalType": "address",
          "name": "",
          "type": "address"
        }
      ],
      "stateMutability": "view",
      "type": "function"
    },
    {
      "inputs": [
        {
          "internalType": "uint256",
          "name": "tokenId",
          "type": "uint256"
        }
      ],
      "name": "ownerOf",
      "outputs": [
        {
          "internalType": "address",
          "name": "",
          "type": "address"
        }
      ],
      "stateMutability": "view",
      "type": "function"
    },
    {
      "inputs": [],
      "name": "prompt",
      "outputs": [
        {
          "internalType": "string",
          "name": "",
          "type": "string"
        }
      ],
      "stateMutability": "view",
      "type": "function"
    },
    {
      "inputs": [],
      "name": "promptDescription",
      "outputs": [
        {
          "internalType": "string",
          "name": "",
          "type": "string"
        }
      ],
      "stateMutability": "view",
      "type": "function"
    },
    {
      "inputs": [
        {
          "internalType": "address",
          "name": "from",
          "type": "address"
        },
        {
          "internalType": "address",
          "name": "to",
          "type": "address"
        },
        {
          "internalType": "uint256",
          "name": "tokenId",
          "type": "uint256"
        }
      ],
      "name": "safeTransferFrom",
      "outputs": [],
      "stateMutability": "payable",
      "type": "function"
    },
    {
      "inputs": [
        {
          "internalType": "address",
          "name": "from",
          "type": "address"
        },
        {
          "internalType": "address",
          "name": "to",
          "type": "address"
        },
        {
          "internalType": "uint256",
          "name": "tokenId",
          "type": "uint256"
        },
        {
          "internalType": "bytes",
          "name": "_data",
          "type": "bytes"
        }
      ],
      "name": "safeTransferFrom",
      "outputs": [],
      "stateMutability": "payable",
      "type": "function"
    },
    {
      "inputs": [
        {
          "internalType": "address",
          "name": "operator",
          "type": "address"
        },
        {
          "internalType": "bool",
          "name": "approved",
          "type": "bool"
        }
      ],
      "name": "setApprovalForAll",
      "outputs": [],
      "stateMutability": "nonpayable",
      "type": "function"
    },
    {
      "inputs": [
        {
          "internalType": "bytes4",
          "name": "interfaceId",
          "type": "bytes4"
        }
      ],
      "name": "supportsInterface",
      "outputs": [
        {
          "internalType": "bool",
          "name": "",
          "type": "bool"
        }
      ],
      "stateMutability": "view",
      "type": "function"
    },
    {
      "inputs": [],
      "name": "symbol",
      "outputs": [
        {
          "internalType": "string",
          "name": "",
          "type": "string"
        }
      ],
      "stateMutability": "view",
      "type": "function"
    },
    {
      "inputs": [
        {
          "internalType": "uint256",
          "name": "tokenId",
          "type": "uint256"
        }
      ],
      "name": "tokenURI",
      "outputs": [
        {
          "internalType": "string",
          "name": "",
          "type": "string"
        }
      ],
      "stateMutability": "view",
      "type": "function"
    },
    {
      "inputs": [],
      "name": "totalSupply",
      "outputs": [
        {
          "internalType": "uint256",
          "name": "",
          "type": "uint256"
        }
      ],
      "stateMutability": "view",
      "type": "function"
    },
    {
      "inputs": [
        {
          "internalType": "address",
          "name": "from",
          "type": "address"
        },
        {
          "internalType": "address",
          "name": "to",
          "type": "address"
        },
        {
          "internalType": "uint256",
          "name": "tokenId",
          "type": "uint256"
        }
      ],
      "name": "transferFrom",
      "outputs": [],
      "stateMutability": "payable",
      "type": "function"
    },
    {
      "inputs": [
        {
          "internalType": "string",
          "name": "newBaseURL",
          "type": "string"
        }
      ],
      "name": "updateBaseURL",
      "outputs": [],
      "stateMutability": "nonpayable",
      "type": "function"
    },
    {
      "inputs": [
        {
          "internalType": "string",
          "name": "newPrompt",
          "type": "string"
        }
      ],
      "name": "updatePrompt",
      "outputs": [],
      "stateMutability": "nonpayable",
      "type": "function"
    }
  ],
  "bytecode": "0x60806040526005600955604051806080016040528060518152602001620029c760519139600a9081620000339190620003f7565b506040518060400160405280601a81526020017f4120636f6c6c656765206c6f76652073746f7279207068617365000000000000815250600b90816200007a9190620003f7565b503480156200008857600080fd5b506040518060400160405280600c81526020017f636f6c6c6567655f6c6f766500000000000000000000000000000000000000008152506040518060400160405280600381526020017f434c5400000000000000000000000000000000000000000000000000000000008152508160029081620001069190620003f7565b508060039081620001189190620003f7565b50620001296200017860201b60201c565b600081905550505033600860006101000a81548173ffffffffffffffffffffffffffffffffffffffff021916908373ffffffffffffffffffffffffffffffffffffffff160217905550620004de565b600090565b600081519050919050565b7f4e487b7100000000000000000000000000000000000000000000000000000000600052604160045260246000fd5b7f4e487b7100000000000000000000000000000000000000000000000000000000600052602260045260246000fd5b60006002820490506001821680620001ff57607f821691505b602082108103620002155762000214620001b7565b5b50919050565b60008190508160005260206000209050919050565b60006020601f8301049050919050565b600082821b905092915050565b6000600883026200027f7fffffffffffffffffffffffffffffffffffffffffffffffffffffffffffffffff8262000240565b6200028b868362000240565b95508019841693508086168417925050509392505050565b6000819050919050565b6000819050919050565b6000620002d8620002d2620002cc84620002a3565b620002ad565b620002a3565b9050919050565b6000819050919050565b620002f483620002b7565b6200030c6200030382620002df565b8484546200024d565b825550505050565b600090565b6200032362000314565b62000330818484620002e9565b505050565b5b8181101562000358576200034c60008262000319565b60018101905062000336565b5050565b601f821115620003a75762000371816200021b565b6200037c8462000230565b810160208510156200038c578190505b620003a46200039b8562000230565b83018262000335565b50505b505050565b600082821c905092915050565b6000620003cc60001984600802620003ac565b1980831691505092915050565b6000620003e78383620003b9565b9150826002028217905092915050565b62000402826200017d565b67ffffffffffffffff8111156200041e576200041d62000188565b5b6200042a8254620001e6565b620004378282856200035c565b600060209050601f8311600181146200046f57600084156200045a578287015190505b620004668582620003d9565b865550620004d6565b601f1984166200047f866200021b565b60005b82811015620004a95784890151825560018201915060208501945060208101905062000482565b86831015620004c95784890151620004c5601f891682620003b9565b8355505b6001600288020188555050505b505050505050565b6124d980620004ee6000396000f3fe60806040526004361061012a5760003560e01c80637c65d711116100ab578063a0712d681161006f578063a0712d68146103cb578063a22cb465146103e7578063b88d4fde14610410578063c87b56dd1461042c578063e640cf7d14610469578063e985e9c5146104945761012a565b80637c65d711146102f6578063870d6f9d146103215780638da5cb5b1461034a578063953637311461037557806395d89b41146103a05761012a565b806323b872dd116100f257806323b872dd1461021b57806342842e0e1461023757806353729e37146102535780636352211e1461027c57806370a08231146102b95761012a565b806301ffc9a71461012f57806306fdde031461016c578063081812fc14610197578063095ea7b3146101d457806318160ddd146101f0575b600080fd5b34801561013b57600080fd5b506101566004803603810190610151919061191d565b6104d1565b6040516101639190611965565b60405180910390f35b34801561017857600080fd5b50610181610563565b60405161018e9190611a10565b60405180910390f35b3480156101a357600080fd5b506101be60048036038101906101b99190611a68565b6105f5565b6040516101cb9190611ad6565b60405180910390f35b6101ee60048036038101906101e99190611b1d565b610674565b005b3480156101fc57600080fd5b506102056107b8565b6040516102129190611b6c565b60405180910390f35b61023560048036038101906102309190611b87565b6107cf565b005b610251600480360381019061024c9190611b87565b610af1565b005b34801561025f57600080fd5b5061027a60048036038101906102759190611c3f565b610b11565b005b34801561028857600080fd5b506102a3600480360381019061029e9190611a68565b610bb7565b6040516102b09190611ad6565b60405180910390f35b3480156102c557600080fd5b506102e060048036038101906102db9190611c8c565b610bc9565b6040516102ed9190611b6c565b60405180910390f35b34801561030257600080fd5b5061030b610c81565b6040516103189190611a10565b60405180910390f35b34801561032d57600080fd5b5061034860048036038101906103439190611c3f565b610d0f565b005b34801561035657600080fd5b5061035f610db5565b60405161036c9190611ad6565b60405180910390f35b34801561038157600080fd5b5061038a610ddb565b6040516103979190611a10565b60405180910390f35b3480156103ac57600080fd5b506103b5610e6d565b6040516103c29190611a10565b60405180910390f35b6103e560048036038101906103e09190611a68565b610eff565b005b3480156103f357600080fd5b5061040e60048036038101906104099190611ce5565b610ff3565b005b61042a60048036038101906104259190611e55565b6110fe565b005b34801561043857600080fd5b50610453600480360381019061044e9190611a68565b611171565b6040516104609190611a10565b60405180910390f35b34801561047557600080fd5b5061047e61120f565b60405161048b9190611b6c565b60405180910390f35b3480156104a057600080fd5b506104bb60048036038101906104b69190611ed8565b611215565b6040516104c89190611965565b60405180910390f35b60006301ffc9a760e01b827bffffffffffffffffffffffffffffffffffffffffffffffffffffffff1916148061052c57506380ac58cd60e01b827bffffffffffffffffffffffffffffffffffffffffffffffffffffffff1916145b8061055c5750635b5e139f60e01b827bffffffffffffffffffffffffffffffffffffffffffffffffffffffff1916145b9050919050565b60606002805461057290611f47565b80601f016020809104026020016040519081016040528092919081815260200182805461059e90611f47565b80156105eb5780601f106105c0576101008083540402835291602001916105eb565b820191906000526020600020905b8154815290600101906020018083116105ce57829003601f168201915b5050505050905090565b6000610600826112a9565b610636576040517fcf4700e400000000000000000000000000000000000000000000000000000000815260040160405180910390fd5b6006600083815260200190815260200160002060000160009054906101000a900473ffffffffffffffffffffffffffffffffffffffff169050919050565b600061067f82610bb7565b90508073ffffffffffffffffffffffffffffffffffffffff166106a0611308565b73ffffffffffffffffffffffffffffffffffffffff1614610703576106cc816106c7611308565b611215565b610702576040517fcfb3b94200000000000000000000000000000000000000000000000000000000815260040160405180910390fd5b5b826006600084815260200190815260200160002060000160006101000a81548173ffffffffffffffffffffffffffffffffffffffff021916908373ffffffffffffffffffffffffffffffffffffffff160217905550818373ffffffffffffffffffffffffffffffffffffffff168273ffffffffffffffffffffffffffffffffffffffff167f8c5be1e5ebec7d5bd14f71427d1e84f3dd0314c0f7b2291e5b200ac8c7c3b92560405160405180910390a4505050565b60006107c2611310565b6001546000540303905090565b60006107da82611315565b90508373ffffffffffffffffffffffffffffffffffffffff168173ffffffffffffffffffffffffffffffffffffffff1614610841576040517fa114810000000000000000000000000000000000000000000000000000000000815260040160405180910390fd5b60008061084d846113e1565b91509150610863818761085e611308565b611408565b6108af5761087886610873611308565b611215565b6108ae576040517f59c896be00000000000000000000000000000000000000000000000000000000815260040160405180910390fd5b5b600073ffffffffffffffffffffffffffffffffffffffff168573ffffffffffffffffffffffffffffffffffffffff1603610915576040517fea553b3400000000000000000000000000000000000000000000000000000000815260040160405180910390fd5b610922868686600161144c565b801561092d57600082555b600560008773ffffffffffffffffffffffffffffffffffffffff1673ffffffffffffffffffffffffffffffffffffffff168152602001908152602001600020600081546001900391905081905550600560008673ffffffffffffffffffffffffffffffffffffffff1673ffffffffffffffffffffffffffffffffffffffff16815260200190815260200160002060008154600101919050819055506109fb856109d7888887611452565b7c02000000000000000000000000000000000000000000000000000000001761147a565b600460008681526020019081526020016000208190555060007c0200000000000000000000000000000000000000000000000000000000841603610a815760006001850190506000600460008381526020019081526020016000205403610a7f576000548114610a7e578360046000838152602001908152602001600020819055505b5b505b838573ffffffffffffffffffffffffffffffffffffffff168773ffffffffffffffffffffffffffffffffffffffff167fddf252ad1be2c89b69c2b068fc378daa952ba7f163c4a11628f55a4df523b3ef60405160405180910390a4610ae986868660016114a5565b505050505050565b610b0c838383604051806020016040528060008152506110fe565b505050565b600860009054906101000a900473ffffffffffffffffffffffffffffffffffffffff1673ffffffffffffffffffffffffffffffffffffffff163373ffffffffffffffffffffffffffffffffffffffff1614610ba1576040517f08c379a0000000000000000000000000000000000000000000000000000000008152600401610b9890611fea565b60405180910390fd5b8181600b9182610bb29291906121c1565b505050565b6000610bc282611315565b9050919050565b60008073ffffffffffffffffffffffffffffffffffffffff168273ffffffffffffffffffffffffffffffffffffffff1603610c30576040517f8f4eb60400000000000000000000000000000000000000000000000000000000815260040160405180910390fd5b67ffffffffffffffff600560008473ffffffffffffffffffffffffffffffffffffffff1673ffffffffffffffffffffffffffffffffffffffff16815260200190815260200160002054169050919050565b600b8054610c8e90611f47565b80601f0160208091040260200160405190810160405280929190818152602001828054610cba90611f47565b8015610d075780601f10610cdc57610100808354040283529160200191610d07565b820191906000526020600020905b815481529060010190602001808311610cea57829003601f168201915b505050505081565b600860009054906101000a900473ffffffffffffffffffffffffffffffffffffffff1673ffffffffffffffffffffffffffffffffffffffff163373ffffffffffffffffffffffffffffffffffffffff1614610d9f576040517f08c379a0000000000000000000000000000000000000000000000000000000008152600401610d9690611fea565b60405180910390fd5b8181600a9182610db09291906121c1565b505050565b600860009054906101000a900473ffffffffffffffffffffffffffffffffffffffff1681565b6060600b8054610dea90611f47565b80601f0160208091040260200160405190810160405280929190818152602001828054610e1690611f47565b8015610e635780601f10610e3857610100808354040283529160200191610e63565b820191906000526020600020905b815481529060010190602001808311610e4657829003601f168201915b5050505050905090565b606060038054610e7c90611f47565b80601f0160208091040260200160405190810160405280929190818152602001828054610ea890611f47565b8015610ef55780601f10610eca57610100808354040283529160200191610ef5565b820191906000526020600020905b815481529060010190602001808311610ed857829003601f168201915b5050505050905090565b600860009054906101000a900473ffffffffffffffffffffffffffffffffffffffff1673ffffffffffffffffffffffffffffffffffffffff163373ffffffffffffffffffffffffffffffffffffffff1614610f8f576040517f08c379a0000000000000000000000000000000000000000000000000000000008152600401610f8690611fea565b60405180910390fd5b60095481610f9b6107b8565b610fa591906122c0565b1115610fe6576040517f08c379a0000000000000000000000000000000000000000000000000000000008152600401610fdd90612340565b60405180910390fd5b610ff033826114ab565b50565b8060076000611000611308565b73ffffffffffffffffffffffffffffffffffffffff1673ffffffffffffffffffffffffffffffffffffffff16815260200190815260200160002060008473ffffffffffffffffffffffffffffffffffffffff1673ffffffffffffffffffffffffffffffffffffffff16815260200190815260200160002060006101000a81548160ff0219169083151502179055508173ffffffffffffffffffffffffffffffffffffffff166110ad611308565b73ffffffffffffffffffffffffffffffffffffffff167f17307eab39ab6107e8899845ad3d59bd9653f200f220920489ca2b5937696c31836040516110f29190611965565b60405180910390a35050565b6111098484846107cf565b60008373ffffffffffffffffffffffffffffffffffffffff163b1461116b5761113484848484611666565b61116a576040517fd1a57ed600000000000000000000000000000000000000000000000000000000815260040160405180910390fd5b5b50505050565b606061117c826112a9565b6111b2576040517fa14c4b5000000000000000000000000000000000000000000000000000000000815260040160405180910390fd5b60006111bc6117b6565b905060008151036111dc5760405180602001604052806000815250611207565b806111e684611848565b6040516020016111f792919061239c565b6040516020818303038152906040525b915050919050565b60095481565b6000600760008473ffffffffffffffffffffffffffffffffffffffff1673ffffffffffffffffffffffffffffffffffffffff16815260200190815260200160002060008373ffffffffffffffffffffffffffffffffffffffff1673ffffffffffffffffffffffffffffffffffffffff16815260200190815260200160002060009054906101000a900460ff16905092915050565b6000816112b4611310565b111580156112c3575060005482105b8015611301575060007c0100000000000000000000000000000000000000000000000000000000600460008581526020019081526020016000205416145b9050919050565b600033905090565b600090565b60008082905080611324611310565b116113aa576000548110156113a95760006004600083815260200190815260200160002054905060007c01000000000000000000000000000000000000000000000000000000008216036113a7575b6000810361139d576004600083600190039350838152602001908152602001600020549050611373565b80925050506113dc565b505b5b6040517fdf2d9b4200000000000000000000000000000000000000000000000000000000815260040160405180910390fd5b919050565b60008060006006600085815260200190815260200160002090508092508254915050915091565b600073ffffffffffffffffffffffffffffffffffffffff8316925073ffffffffffffffffffffffffffffffffffffffff821691508382148383141790509392505050565b50505050565b60008060e883901c905060e8611469868684611898565b62ffffff16901b9150509392505050565b600073ffffffffffffffffffffffffffffffffffffffff83169250814260a01b178317905092915050565b50505050565b600080549050600082036114eb576040517fb562e8dd00000000000000000000000000000000000000000000000000000000815260040160405180910390fd5b6114f8600084838561144c565b600160406001901b178202600560008573ffffffffffffffffffffffffffffffffffffffff1673ffffffffffffffffffffffffffffffffffffffff1681526020019081526020016000206000828254019250508190555061156f836115606000866000611452565b611569856118a1565b1761147a565b6004600083815260200190815260200160002081905550600080838301905073ffffffffffffffffffffffffffffffffffffffff85169150828260007fddf252ad1be2c89b69c2b068fc378daa952ba7f163c4a11628f55a4df523b3ef600080a4600183015b81811461161057808360007fddf252ad1be2c89b69c2b068fc378daa952ba7f163c4a11628f55a4df523b3ef600080a46001810190506115d5565b506000820361164b576040517f2e07630000000000000000000000000000000000000000000000000000000000815260040160405180910390fd5b80600081905550505061166160008483856114a5565b505050565b60008373ffffffffffffffffffffffffffffffffffffffff1663150b7a0261168c611308565b8786866040518563ffffffff1660e01b81526004016116ae9493929190612415565b6020604051808303816000875af19250505080156116ea57506040513d601f19601f820116820180604052508101906116e79190612476565b60015b611763573d806000811461171a576040519150601f19603f3d011682016040523d82523d6000602084013e61171f565b606091505b50600081510361175b576040517fd1a57ed600000000000000000000000000000000000000000000000000000000815260040160405180910390fd5b805181602001fd5b63150b7a0260e01b7bffffffffffffffffffffffffffffffffffffffffffffffffffffffff1916817bffffffffffffffffffffffffffffffffffffffffffffffffffffffff191614915050949350505050565b6060600a80546117c590611f47565b80601f01602080910402602001604051908101604052809291908181526020018280546117f190611f47565b801561183e5780601f106118135761010080835404028352916020019161183e565b820191906000526020600020905b81548152906001019060200180831161182157829003601f168201915b5050505050905090565b606060a060405101806040526020810391506000825281835b60011561188357600184039350600a81066030018453600a8104905080611861575b50828103602084039350808452505050919050565b60009392505050565b60006001821460e11b9050919050565b6000604051905090565b600080fd5b600080fd5b60007fffffffff0000000000000000000000000000000000000000000000000000000082169050919050565b6118fa816118c5565b811461190557600080fd5b50565b600081359050611917816118f1565b92915050565b600060208284031215611933576119326118bb565b5b600061194184828501611908565b91505092915050565b60008115159050919050565b61195f8161194a565b82525050565b600060208201905061197a6000830184611956565b92915050565b600081519050919050565b600082825260208201905092915050565b60005b838110156119ba57808201518184015260208101905061199f565b60008484015250505050565b6000601f19601f8301169050919050565b60006119e282611980565b6119ec818561198b565b93506119fc81856020860161199c565b611a05816119c6565b840191505092915050565b60006020820190508181036000830152611a2a81846119d7565b905092915050565b6000819050919050565b611a4581611a32565b8114611a5057600080fd5b50565b600081359050611a6281611a3c565b92915050565b600060208284031215611a7e57611a7d6118bb565b5b6000611a8c84828501611a53565b91505092915050565b600073ffffffffffffffffffffffffffffffffffffffff82169050919050565b6000611ac082611a95565b9050919050565b611ad081611ab5565b82525050565b6000602082019050611aeb6000830184611ac7565b92915050565b611afa81611ab5565b8114611b0557600080fd5b50565b600081359050611b1781611af1565b92915050565b60008060408385031215611b3457611b336118bb565b5b6000611b4285828601611b08565b9250506020611b5385828601611a53565b9150509250929050565b611b6681611a32565b82525050565b6000602082019050611b816000830184611b5d565b92915050565b600080600060608486031215611ba057611b9f6118bb565b5b6000611bae86828701611b08565b9350506020611bbf86828701611b08565b9250506040611bd086828701611a53565b9150509250925092565b600080fd5b600080fd5b600080fd5b60008083601f840112611bff57611bfe611bda565b5b8235905067ffffffffffffffff811115611c1c57611c1b611bdf565b5b602083019150836001820283011115611c3857611c37611be4565b5b9250929050565b60008060208385031215611c5657611c556118bb565b5b600083013567ffffffffffffffff811115611c7457611c736118c0565b5b611c8085828601611be9565b92509250509250929050565b600060208284031215611ca257611ca16118bb565b5b6000611cb084828501611b08565b91505092915050565b611cc28161194a565b8114611ccd57600080fd5b50565b600081359050611cdf81611cb9565b92915050565b60008060408385031215611cfc57611cfb6118bb565b5b6000611d0a85828601611b08565b9250506020611d1b85828601611cd0565b9150509250929050565b600080fd5b7f4e487b7100000000000000000000000000000000000000000000000000000000600052604160045260246000fd5b611d62826119c6565b810181811067ffffffffffffffff82111715611d8157611d80611d2a565b5b80604052505050565b6000611d946118b1565b9050611da08282611d59565b919050565b600067ffffffffffffffff821115611dc057611dbf611d2a565b5b611dc9826119c6565b9050602081019050919050565b82818337600083830152505050565b6000611df8611df384611da5565b611d8a565b905082815260208101848484011115611e1457611e13611d25565b5b611e1f848285611dd6565b509392505050565b600082601f830112611e3c57611e3b611bda565b5b8135611e4c848260208601611de5565b91505092915050565b60008060008060808587031215611e6f57611e6e6118bb565b5b6000611e7d87828801611b08565b9450506020611e8e87828801611b08565b9350506040611e9f87828801611a53565b925050606085013567ffffffffffffffff811115611ec057611ebf6118c0565b5b611ecc87828801611e27565b91505092959194509250565b60008060408385031215611eef57611eee6118bb565b5b6000611efd85828601611b08565b9250506020611f0e85828601611b08565b9150509250929050565b7f4e487b7100000000000000000000000000000000000000000000000000000000600052602260045260246000fd5b60006002820490506001821680611f5f57607f821691505b602082108103611f7257611f71611f18565b5b50919050565b7f4f6e6c79206f776e65722063616e20706572666f726d2074686973206163746960008201527f6f6e210000000000000000000000000000000000000000000000000000000000602082015250565b6000611fd460238361198b565b9150611fdf82611f78565b604082019050919050565b6000602082019050818103600083015261200381611fc7565b9050919050565b600082905092915050565b60008190508160005260206000209050919050565b60006020601f8301049050919050565b600082821b905092915050565b6000600883026120777fffffffffffffffffffffffffffffffffffffffffffffffffffffffffffffffff8261203a565b612081868361203a565b95508019841693508086168417925050509392505050565b6000819050919050565b60006120be6120b96120b484611a32565b612099565b611a32565b9050919050565b6000819050919050565b6120d8836120a3565b6120ec6120e4826120c5565b848454612047565b825550505050565b600090565b6121016120f4565b61210c8184846120cf565b505050565b5b81811015612130576121256000826120f9565b600181019050612112565b5050565b601f8211156121755761214681612015565b61214f8461202a565b8101602085101561215e578190505b61217261216a8561202a565b830182612111565b50505b505050565b600082821c905092915050565b60006121986000198460080261217a565b1980831691505092915050565b60006121b18383612187565b9150826002028217905092915050565b6121cb838361200a565b67ffffffffffffffff8111156121e4576121e3611d2a565b5b6121ee8254611f47565b6121f9828285612134565b6000601f8311600181146122285760008415612216578287013590505b61222085826121a5565b865550612288565b601f19841661223686612015565b60005b8281101561225e57848901358255600182019150602085019450602081019050612239565b8683101561227b5784890135612277601f891682612187565b8355505b6001600288020188555050505b50505050505050565b7f4e487b7100000000000000000000000000000000000000000000000000000000600052601160045260246000fd5b60006122cb82611a32565b91506122d683611a32565b92508282019050808211156122ee576122ed612291565b5b92915050565b7f596f752063616e206e6f74206d696e74206d6f7265207468616e203500000000600082015250565b600061232a601c8361198b565b9150612335826122f4565b602082019050919050565b600060208201905081810360008301526123598161231d565b9050919050565b600081905092915050565b600061237682611980565b6123808185612360565b935061239081856020860161199c565b80840191505092915050565b60006123a8828561236b565b91506123b4828461236b565b91508190509392505050565b600081519050919050565b600082825260208201905092915050565b60006123e7826123c0565b6123f181856123cb565b935061240181856020860161199c565b61240a816119c6565b840191505092915050565b600060808201905061242a6000830187611ac7565b6124376020830186611ac7565b6124446040830185611b5d565b818103606083015261245681846123dc565b905095945050505050565b600081519050612470816118f1565b92915050565b60006020828403121561248c5761248b6118bb565b5b600061249a84828501612461565b9150509291505056fea264697066735822122054bbbd7f5120f3f5367a6a0d0791dca79e6792235102538fa9bbf184386dcc4764736f6c6343000812003368747470733a2f2f676174657761792e70696e6174612e636c6f75642f697066732f516d64714d457558555368526274634c563874794874614b62764c396343554c456d5474575350453370587356792f",
  "linkReferences": {},
  "deployedLinkReferences": {}
}